:0600000002002102071EB0
:03000B000203539A
:030013000208855B
:03001B000202FDE1
:13007A00E4F508F509F50AF50B750C20F50DF50E02001ECF
:03001E000201F7E5
:20008D0090FA407440F090FA41E4F090FA427440F090FA437460F090FA44E4F090FA457460
:2000AD0060F090FA467470F090FA47E4F090F8097407F090F80A741FF090F8107460F0909D
:2000CD00F811E4F090F08FF090FA6F741FF090FA607402F090FA61E4F090FA64F090FA65DF
:2000ED00F090FA66F090FA67F090FA62740FF090FA6F741FF090FA14E053E0FDF090FA152A
:20010D00E0FF43070290FA15EFF090FA217407F0E0FF5307FB90FA21EFF090FA68E054F738
:20012D00F090FA69E054F7F090FA6AE054F7F090FA6BE054F7F090FE00E4F07480F090FAC5
:20014D00507420F090FE01E4F090FE027445F0758911758CF0758A5F758DF0758B5F75B846
:20016D000175881075980075A8802290FA38E030E1012290F0007405F090F21074FFF09054
:20018D00F2117402F090F21204F090F2137424F090F000E4F090FA6B14F090F014E054032C
:2001AD0060F822AF8290F293E4F090F293E020E6F990F29CE545F0E4F0EFF07E007F009032
:2001CD00F29CE4F00EBE00010FC3EE9405EF6480948040EB90F28C7408F090F28DE4F0908B
:2001ED00F28EF090F2937440F02212008D12017812063612030A1203DF1203F8120954ACF4
:20020D000FAD10AE11AF12050FE4B50F0C0510B510070511B511020512C3ED9420EE940001
:20022D00EF94004020E50C9420E50D9400E50E94005012050BE4B50B0C050CB50C07050D0F
:20024D00B50D02050EE50A60B3C3E50C9420E50D9400E50E940040A4E5082442FEE50934EC
:20026D0010FF8E828F83E493605A7545007582001201B07545007582001201B075450075F8
:20028D0082001201B07545007582001201B0E5082442F582E5093410F583E493FF74012514
:2002AD0008FDE43509FEED2442F582EE3410F583E493F5458F821201B07545007582001250
:2002CD0001B08011E4F50BF50CF50DF50EF50FF510F511F51274022508F508E43509F5090F
:1002ED00C3648094A05003020209750A000202093A
:2010420012345678000000000000000000000000000000000000000000000000000000007A
:2010620000000000000000000000000000000000000000000000000000000000000000006E
:2010820000000000000000000000000000000000000000000000000000000000000000004E
:2010A20000000000000000000000000000000000000000000000000000000000000000002E
:2010C20000000000000000000000000000000000000000000000000000000000000000000E
:2002FD00C28E85198D85188B0517D28E3290FA60E0FFBF0F0875183C7519F6802390FA6017
:20031D00E0FF7E0074022FF545E43EF5469009C4121006AE82AF83C3E49EF518E49FF5195D
:20033D00751700C28ED2ABAE8953060F4306108E892285178222C0E0C082C083C007C00624
:20035D00C0D075D000C28C758AE6758C96D28C90FA15E020E102805805130514C3E51495A7
:20037D00165002804B75140074E12515500B90FA157401F0751500803774F62515500B90E6
:20039D00FA15E0FFF4F005158026E5157002802090FA15E030E00A90FA15E053E0FEF080E9
:2003BD000F90FA15E0FF7E0043070190FA15EFF0D0D0D006D007D083D082D0E032AE828EBA
:2003DD00162275166475130090FA157403F0751400751500D2AFD2A9D28C2290FA157402A7
:0F03FD00F07515012290FA157403F075150022A2
:20040C00AF8290F80BE4F01F90F80CEFF0E4B54602800E7401B5460280147402B5461C8024
:20042C001490F80DE545F090F80EE545F02290F80DE545F02290F80EE545F022AE82AF8316
:20044C008E0590F1CCEDF08F0690F1CDEEF090F1CEE4F090F1D37440F090F1D3E020E6F9C4
:20046C0090F0487405F022AE82AF83EE4F6056754500754600758220C007C00612040C7518
:20048C00458075460175822012040CD006D00790F1C57480F090F1C6E4F090F1C7F090F1EB
:2004AC00CAE523F08E0590F1CCEDF08F0690F1CDEEF090F1CEE4F090F1D37488F090F1D339
:2004CC00E0FF20E7F822AE82AF83EE4F6056754500754600758220C007C00612040C7545C6
:2004EC008075460175822012040CD006D00790F2057480F090F206E4F090F207F090F20A02
:20050C00E524F08E0590F20CEDF08F0690F20DEEF090F20EE4F090F2137488F090F213E07C
:20052C00FF20E7F8229000007455F09000017453F09000027442F09000037453F0900004E8
:20054C00E52EF0900005E52FF0900006E530F0900007E531F0AF26900008EFF0AF27900009
:20056C0009EFF0AF2890000AEFF0AF2990000BEFF090000CE525F075240090000D1204D231
:20058C00906006E4F0F526F527F528F5292290F213E0FF20E1F890F217E0FF20E70D90F078
:2005AC0010E020E5F1906006E4F02290F213E0FF20E6F890F253E0FF20E6F890F293E0FF45
:2005CC0020E6F890F2D3E020E6F990F21C7455F07453F07442F07453F090F21CE52EF0E5EC
:2005EC002FF0E530F0E531F0AF2690F21CEFF0AF2790F21CEFF0AF2890F21CEFF0AF299064
:20060C00F21CEFF0E525F090F20C740DF090F20DE4F090F20EF090F2137440F0906006E4F2
:20062C00F0F526F527F528F52922906000E4F0906005F0906006F0F52290F2057480F09089
:20064C00F206E4F090F207F090F2087410F090F20AE4F090F2457480F090F246E4F090F222
:20066C0047F090F2487410F090F24AE4F090FA38E030E15490F009E0FF5307077E00BF0448
:20068C0008BE0005752204802790F009E0540760028005752200801890F009E0FF5307079E
:2006AC007E00BF0108BE00057522018003752200D2AAD2A890F030740AF0E4F526F527F54F
:2006CC0028F529F52502053190F0007406F090F2407402F090F28C7436F090F28D74D0F079
:2006EC0090F28E7498F090F000E4F090F030740AF090F0087484F090FA38E0FF7E00430797
:20070C000290FA38EFF0D2AAD2A87FFAEF14FF70FB22C0E0C082C083C007C006C005C004F1
:20072C00C0D075D00090F027E0FF906000F0EF30E50690F0277420F0EF30E40690F0277419
:20074C0010F0EF30E73F90F0277480F090F009E0FE5306077D00BE0408BD000575220480D2
:20076C002490F009E054077004F522801890F009E0FE5306077D00BE0108BD0005752201FD
:20078C008003752200EF30E60690F0277440F090F087E0906004F090F086E0906003F090B9
:2007AC00F082E0FF906002F090F080E0906001F0EF30E70690F0827480F0906002E030E65F
:2007CC000690F0827440F0906001E030E05390F0807401F090F048E030E74690F0B8E0F5B6
:2007EC001A90F0B9E0F51B90F0BAE0FF90F0BBE0FDE4FC4FF51CED4CF51D90F0BCE0FF9043
:20080C00F0BDE0FDE4FC4FF51EED4CF51F90F0BEE0FF90F0BFE0FDE4FEFC4FF520ED4CF50A
:20082C002190F082E030E50690F0827420F090F081E030E40690F0817410F090F081E03087
:20084C00E50690F0817420F0906002E0FF906001E04207906003E04207906004E042079068
:20086C006000E04F6002C2A8D0D0D004D005D006D007D083D082D0E032C0E0C082C083C0AF
:20088C0007C006C005C0D075D00090F020E0540AFF30E11D90F030E053E0FDF090F0207416
:2008AC0002F0906005E0FE7D00430602906005EEF0EF30E31D90F030E053E0F7F090F02063
:2008CC007408F0906005E0FF7E00430708906005EFF0D0D0D005D006D007D083D082D0E0B1
:2008EC003290F030740AF090F213E4F090F253F090F293F090F2D3F022AE1A5306607F0002
:20090C00BE0005BF00028010BE2005BF0002800FBE401ABF0017800E120C76AF82801012A1
:20092C000CBDAF828009120CEAAF8280027F00EF7015E520452160067E087F0080047E02A0
:20094C007F0090F048EEF022906002E0FF906001E0FE4FFD906003E04205906004E0420523
:20096C00906000E0FC4D6076EC6039EC30E62490F008E053E07FF01208ED90FE88E4F09046
:20098C00FE827410F090FE88E0FDBD02F890F0087480F0906000E030E7031208ED90600060
:2009AC00E4F08038EF54C0601B1208ED90F092E4F090F096F0906002E030E60F90F07A74C9
:2009CC0001F08007EE30E003120905906001E4F0906002F0906003F0906004F0D2A890F208
:2009EC00DAE0602090F2D37440F0750A01906005E053E0F7F090F030E0FF7E00430708905A
:200A0C00F030EFF0906005E020E103020B6490F25AE0FFBF1F028003020B45E4F526F527F6
:200A2C00F528F52990F25CE0FF90F25CE0FE90F25CE0FD90F25CE0FCBF55028003020B3BA0
:200A4C00BE53028003020B3BBD42028003020B3BBC43028003020B3B90F25CE0FF8F2E900A
:200A6C00F25CE0FF8F2F90F25CE0FF8F3090F25CE0FF8F3190F25CE0FF8F2A752B00752CCF
:200A8C0000752D0090F25CE0FF7E007D008D048E058F06E4422AEE422BED422CEC422D9046
:200AAC00F25CE0FF7E008E048F05E4FE422AEE422BED422CEC422D90F25CE0FCE4FFFEFD62
:200ACC00EF422AEE422BED422CEC422D90F25CE0FF74805FF53290F25CE0F53390F25CE0C3
:200AEC00F5447F00EF2434F990F25CE0F70FBF100040F190F2537440F0120CEEE5827027AB
:200B0C00752501E52A452B452C452D700890F2137402F08012E532600890F2137402F080CD
:200B2C000690F2537402F09060067401F0801290F2537440F0C4F0800890F2537440F0C489
:200B4C00F0906005E053E0FDF090F030E0FF7E0043070290F030EFF0906006E0600302057C
:020B6C009A22CB
:200B6E0090F0487401F0227F00C3E51C947FE51D94005005120B6E7F018F8222AF1D7E004F
:200B8E00BF01028014BF02028040BF0603020C0EBF2203020C3E020C6C7F00EF90304293DD
:200BAE0090F1DCF00FBF120040F1E5209412E52194005006AD20AF2180047D127F008D82F0
:200BCE008F831204487E01020C6CC3E5209447E52194005006AD20AF2180047D477F007F28
:200BEE0000C3EF9D500DEF90305493FC90F1DCF00F80EE7F008D828F831204487E01805E84
:200C0E007F00EF90310E9390F1DCF00FBF0A0040F1E520940AE52194005006AD20AF2180F0
:200C2E00047D0A7F008D828F831204487E01802E7F00EF90309B9390F1DCF00FBF3F0040FA
:200C4E00F1E520943FE52194005006AD20AF2180047D3F7F008D828F831204487E018E8263
:200C6E0022120B6E758201227405B51B02800E7406B51B02800A7409B51B0B8006020B7590
:200C8E00020B8A020C6F7582002290F1DCE4F0C3E5209401E52194005006AE20AF21800479
:200CAE007E017F008E828F83120448758201227409B51B02800E740AB51B02801174FEB5A9
:200CCE001B16801190F0487405F075820122120B6E75820122020C9875820022758200227C
:203042001201000200000040B404051100000000000109024700020100804B09040000031A
:20306200080650000705810240000007050202400000070583030800000904010002030222
:203082000100092101010001223400070583030800010705040308000105010906A1010537
:2030A2000719E029E7150025017501950881029501750881019505750105081901290591A2
:2030C2000295017503910195067508150025650507190029658100C005010902A1010901E4
:2030E200A100050919012903150025019503750181029501750581030501093009310938BF
:163102001581257F750895038106C0C00A0600020000004001000E
:200CEE00752501AF34BF00028037BF0303020DCCBF0603020E06BF1202802ABF1A03020D0A
:200D0E009EBF1E028014BF2302804DBFC603020E06BFC703020E06020F9F75250075820184
:200D2E00227582012275450075462475470090000075F000120FA39000017480F090000353
:200D4E0023F0900004741FF07524009000241204D27525007582012275450075460C754735
:200D6E000090000075F000120FA39000037408F090000623F09000087403F090000A14F067
:200D8E0075240090000C1204D27525007582012275450075460875470090000075F0001234
:200DAE000FA39000007403F09000027480F07524009000041204D275250075820122754583
:200DCE000075461275470090000075F000120FA39000007470F09000027402F0900007745C
:200DEE000AF090000C743AF07524009000121204D275250075820122AF35BF0503020F0519
:200E0E00BF0602801EBF0702803CBF08028058BF09028068BF5603020E9ABFBF03020F5CD8
:200E2E00020F9BAF367E00AC377D00EC4206ED42078E828F83E0900000F07524009000011F
:200E4E001204D2020F9FAF367E00AC377D00EC4206ED42078E828F83E538F0752400900067
:200E6E00011204D2020F9FA9368707900000EFF07524009000011204D2020F9FA936A73770
:200E8E007524009000011204D2020F9F75450075460075470290000075F000120FA390F412
:200EAE0080E4F090F61814F090F60814F090F40004F090F41EE030E0F990F4007490F09091
:200ECE00F404E4F07E007F008E0474002FFD90F408E08C828D83F00EBE00010FC3EE940668
:200EEE00EF6480948040E17524009002001204D275250075820122754500754610754702D2
:200F0E0090000075F000120FA3900094E4F09000957499F09000967453F090017A7456F04E
:200F2E0090017B7452F090017E7423F090017F7403F09002007449F09002017446F07524BF
:200F4E00009002101204D27525007582012290FA147407F090F747E054EFF090FA15740642
:200F6E00F090FA38E0FF7E0043070190FA38EFF090F08FE4F090FA68E054F7F090FA6AE0A4
:150F8E0054F7F090FA48E054FEFFF0800475820022758200226A
:06005000E478FFF6D8FD84
:1F0FA300AC82AD83AE46AF47BE0004EF600C1F0FE545120FC2A3DEFADFF88C828D8322FD
:20002E007900E94400601B7A00903118780775A060E493F2A308B8000205A0D9F4DAF275C9
:02004E00A0FF11
:1B0FC20020F71130F6138883A88220F509F6A8837583002280FEF280F5F0222E
:200FDD007A10E4FBFCE58225E0F582E58333F583EB33FBEC33FCEB9545F5F0EC95464006AE
:090FFD00FCABF0438201DADD22B5
:200056007800E84400600A790075A060E4F309D8FC7807E84400600C7901906000E4F0A3E2
:04007600D8FCD9FADF
:0D00210075814712103EE582600302001E4B
:20100600C2D5E58330E70DD2D5E4C39582F582E49583F583E54630E70DB2D5E4C39545F50B
:1810260045E49546F546120FDD30D50BE4C39582F582E49583F583229A
:04103E007582002295
:00000001FF
